{
    "contractName": "Spaceship",
    "abi": [
        {
            "inputs": [
                {
                    "internalType": "bytes32",
                    "name": "_name",
                    "type": "bytes32"
                }
            ],
            "stateMutability": "nonpayable",
            "type": "constructor"
        },
        {
            "inputs": [
                {
                    "internalType": "uint256",
                    "name": "duration",
                    "type": "uint256"
                }
            ],
            "name": "burn",
            "outputs": [],
            "stateMutability": "nonpayable",
            "type": "function"
        },
        {
            "inputs": [],
            "name": "fuelLevel",
            "outputs": [
                {
                    "internalType": "uint256",
                    "name": "",
                    "type": "uint256"
                }
            ],
            "stateMutability": "view",
            "type": "function"
        },
        {
            "inputs": [],
            "name": "getName",
            "outputs": [
                {
                    "internalType": "bytes32",
                    "name": "_name",
                    "type": "bytes32"
                }
            ],
            "stateMutability": "view",
            "type": "function"
        },
        {
            "inputs": [],
            "name": "getVelocity",
            "outputs": [
                {
                    "internalType": "uint256",
                    "name": "_course",
                    "type": "uint256"
                },
                {
                    "internalType": "uint256",
                    "name": "_magnitude",
                    "type": "uint256"
                }
            ],
            "stateMutability": "view",
            "type": "function"
        },
        {
            "inputs": [],
            "name": "orientation",
            "outputs": [
                {
                    "internalType": "uint256",
                    "name": "",
                    "type": "uint256"
                }
            ],
            "stateMutability": "view",
            "type": "function"
        },
        {
            "inputs": [
                {
                    "internalType": "uint256",
                    "name": "fuel",
                    "type": "uint256"
                }
            ],
            "name": "refuel",
            "outputs": [],
            "stateMutability": "nonpayable",
            "type": "function"
        }
    ],
    "bytecode": "6080604052600060045534801561001557600080fd5b506040516101b13803806101b18339818101604052602081101561003857600080fd5b50516000556101658061004c6000396000f3fe608060405234801561001057600080fd5b50600436106100625760003560e01c8063038b9fc61461006757806317d7de7c1461008157806342966c68146100895780635b4b1c0e146100a8578063b35cf9a0146100b0578063ee2e0ac8146100d1575b600080fd5b61006f6100ee565b60408051918252519081900360200190f35b61006f6100f4565b6100a66004803603602081101561009f57600080fd5b50356100fa565b005b61006f6100fd565b6100b8610103565b6040805192835260208301919091528051918290030190f35b6100a6600480360360208110156100e757600080fd5b503561010d565b60015481565b60005490565b50565b60045481565b6002546003549091565b6064816001540111156101245760646001556100fa565b60018054820190555056fea2646970667358221220552b756a7dfaa5023b9f7a207b16ffcbc35561cf8cab40287869300408bd4f6364736f6c63430007040033",
    "sourcePath": "c:/Projects/se/spaceship.sol",
    "compiler": {
        "name": "solc",
        "version": "0.7.4+commit.3f05b770"
    },
    "functionHashes": {
        "burn(uint256)": "42966c68",
        "fuelLevel()": "038b9fc6",
        "getName()": "17d7de7c",
        "getVelocity()": "b35cf9a0",
        "orientation()": "5b4b1c0e",
        "refuel(uint256)": "ee2e0ac8"
    },
    "gasEstimates": {
        "creation": {
            "codeDepositCost": "71400",
            "executionCost": "infinite",
            "totalCost": "infinite"
        },
        "external": {
            "burn(uint256)": "210",
            "fuelLevel()": "976",
            "getName()": "998",
            "getVelocity()": "1894",
            "orientation()": "1042",
            "refuel(uint256)": "21923"
        }
    }
}